{
  "_format": "hh-sol-artifact-1",
  "contractName": "ExampleERC6551Account",
  "sourceName": "contracts/ExampleERC6551Account.sol",
  "abi": [
    {
      "inputs": [
        {
          "internalType": "uint256",
          "name": "_size",
          "type": "uint256"
        },
        {
          "internalType": "uint256",
          "name": "_start",
          "type": "uint256"
        },
        {
          "internalType": "uint256",
          "name": "_end",
          "type": "uint256"
        }
      ],
      "name": "InvalidCodeAtRange",
      "type": "error"
    },
    {
      "inputs": [
        {
          "internalType": "address",
          "name": "to",
          "type": "address"
        },
        {
          "internalType": "uint256",
          "name": "value",
          "type": "uint256"
        },
        {
          "internalType": "bytes",
          "name": "data",
          "type": "bytes"
        }
      ],
      "name": "executeCall",
      "outputs": [
        {
          "internalType": "bytes",
          "name": "result",
          "type": "bytes"
        }
      ],
      "stateMutability": "payable",
      "type": "function"
    },
    {
      "inputs": [
        {
          "internalType": "bytes32",
          "name": "hash",
          "type": "bytes32"
        },
        {
          "internalType": "bytes",
          "name": "signature",
          "type": "bytes"
        }
      ],
      "name": "isValidSignature",
      "outputs": [
        {
          "internalType": "bytes4",
          "name": "magicValue",
          "type": "bytes4"
        }
      ],
      "stateMutability": "view",
      "type": "function"
    },
    {
      "inputs": [],
      "name": "nonce",
      "outputs": [
        {
          "internalType": "uint256",
          "name": "",
          "type": "uint256"
        }
      ],
      "stateMutability": "view",
      "type": "function"
    },
    {
      "inputs": [],
      "name": "owner",
      "outputs": [
        {
          "internalType": "address",
          "name": "",
          "type": "address"
        }
      ],
      "stateMutability": "view",
      "type": "function"
    },
    {
      "inputs": [
        {
          "internalType": "bytes4",
          "name": "interfaceId",
          "type": "bytes4"
        }
      ],
      "name": "supportsInterface",
      "outputs": [
        {
          "internalType": "bool",
          "name": "",
          "type": "bool"
        }
      ],
      "stateMutability": "pure",
      "type": "function"
    },
    {
      "inputs": [],
      "name": "token",
      "outputs": [
        {
          "internalType": "uint256",
          "name": "chainId",
          "type": "uint256"
        },
        {
          "internalType": "address",
          "name": "tokenContract",
          "type": "address"
        },
        {
          "internalType": "uint256",
          "name": "tokenId",
          "type": "uint256"
        }
      ],
      "stateMutability": "view",
      "type": "function"
    },
    {
      "stateMutability": "payable",
      "type": "receive"
    }
  ],
  "bytecode": "0x608060405234801561001057600080fd5b50611290806100206000396000f3fe6080604052600436106100595760003560e01c806301ffc9a7146100655780631626ba7e146100a25780638da5cb5b146100df5780639e5d4c491461010a578063affed0e01461013a578063fc0c546a1461016557610060565b3661006057005b600080fd5b34801561007157600080fd5b5061008c6004803603810190610087919061096d565b610192565b60405161009991906109b5565b60405180910390f35b3480156100ae57600080fd5b506100c960048036038101906100c49190610b4c565b610264565b6040516100d69190610bb7565b60405180910390f35b3480156100eb57600080fd5b506100f461029d565b6040516101019190610c13565b60405180910390f35b610124600480360381019061011f9190610cf0565b6103ae565b6040516101319190610de3565b60405180910390f35b34801561014657600080fd5b5061014f6104b0565b60405161015c9190610e14565b60405180910390f35b34801561017157600080fd5b5061017a6104b5565b60405161018993929190610e2f565b60405180910390f35b60007f01ffc9a7000000000000000000000000000000000000000000000000000000007bffffffffffffffffffffffffffffffffffffffffffffffffffffffff1916827bffffffffffffffffffffffffffffffffffffffffffffffffffffffff1916148061025d57507f400a0398000000000000000000000000000000000000000000000000000000007bffffffffffffffffffffffffffffffffffffffffffffffffffffffff1916827bffffffffffffffffffffffffffffffffffffffffffffffffffffffff1916145b9050919050565b60008061027961027261029d565b858561050b565b9050801561029157631626ba7e60e01b915050610297565b60009150505b92915050565b6000806000803073ffffffffffffffffffffffffffffffffffffffff1663fc0c546a6040518163ffffffff1660e01b8152600401606060405180830381865afa1580156102ee573d6000803e3d6000fd5b505050506040513d601f19601f820116820180604052508101906103129190610e90565b92509250925046831461032b57600093505050506103ab565b8173ffffffffffffffffffffffffffffffffffffffff16636352211e826040518263ffffffff1660e01b81526004016103649190610e14565b602060405180830381865afa158015610381573d6000803e3d6000fd5b505050506040513d601f19601f820116820180604052508101906103a59190610ee3565b93505050505b90565b60606103b861029d565b73ffffffffffffffffffffffffffffffffffffffff163373ffffffffffffffffffffffffffffffffffffffff1614610425576040517f08c379a000000000000000000000000000000000000000000000000000000000815260040161041c90610f6d565b60405180910390fd5b60008573ffffffffffffffffffffffffffffffffffffffff1685858560405161044f929190610fbd565b60006040518083038185875af1925050503d806000811461048c576040519150601f19603f3d011682016040523d82523d6000602084013e610491565b606091505b508093508192505050806104a757815160208301fd5b50949350505050565b600090565b6000806000803073ffffffffffffffffffffffffffffffffffffffff163b90506104ec306060836104e69190611005565b8361059a565b8060200190518101906104ff9190611077565b93509350935050909192565b600080600061051a858561067f565b9150915060006004811115610532576105316110ca565b5b816004811115610545576105446110ca565b5b14801561057d57508573ffffffffffffffffffffffffffffffffffffffff168273ffffffffffffffffffffffffffffffffffffffff16145b8061058f575061058e8686866106d0565b5b925050509392505050565b606060006105a785610814565b9050600081036105c95760405180602001604052806000815250915050610678565b808411156105e95760405180602001604052806000815250915050610678565b83831015610632578084846040517f2c4a89fa000000000000000000000000000000000000000000000000000000008152600401610629939291906110f9565b60405180910390fd5b6000848403905060008583039050600082821061064f5782610651565b815b90506040519450601f19601f60208301011685016040528085528087602087018a3c505050505b9392505050565b60008060418351036106c05760008060006020860151925060408601519150606086015160001a90506106b48782858561081f565b945094505050506106c9565b60006002915091505b9250929050565b60008060008573ffffffffffffffffffffffffffffffffffffffff16631626ba7e60e01b868660405160240161070792919061113f565b604051602081830303815290604052907bffffffffffffffffffffffffffffffffffffffffffffffffffffffff19166020820180517bffffffffffffffffffffffffffffffffffffffffffffffffffffffff838183161783525050505060405161077191906111a0565b600060405180830381855afa9150503d80600081146107ac576040519150601f19603f3d011682016040523d82523d6000602084013e6107b1565b606091505b50915091508180156107c557506020815110155b80156108095750631626ba7e60e01b7bffffffffffffffffffffffffffffffffffffffffffffffffffffffff19168180602001905181019061080791906111cc565b145b925050509392505050565b6000813b9050919050565b6000807f7fffffffffffffffffffffffffffffff5d576e7357a4501ddfe92f46681b20a08360001c111561085a5760006003915091506108f8565b60006001878787876040516000815260200160405260405161087f9493929190611215565b6020604051602081039080840390855afa1580156108a1573d6000803e3d6000fd5b505050602060405103519050600073ffffffffffffffffffffffffffffffffffffffff168173ffffffffffffffffffffffffffffffffffffffff16036108ef576000600192509250506108f8565b80600092509250505b94509492505050565b6000604051905090565b600080fd5b600080fd5b60007fffffffff0000000000000000000000000000000000000000000000000000000082169050919050565b61094a81610915565b811461095557600080fd5b50565b60008135905061096781610941565b92915050565b6000602082840312156109835761098261090b565b5b600061099184828501610958565b91505092915050565b60008115159050919050565b6109af8161099a565b82525050565b60006020820190506109ca60008301846109a6565b92915050565b6000819050919050565b6109e3816109d0565b81146109ee57600080fd5b50565b600081359050610a00816109da565b92915050565b600080fd5b600080fd5b6000601f19601f8301169050919050565b7f4e487b7100000000000000000000000000000000000000000000000000000000600052604160045260246000fd5b610a5982610a10565b810181811067ffffffffffffffff82111715610a7857610a77610a21565b5b80604052505050565b6000610a8b610901565b9050610a978282610a50565b919050565b600067ffffffffffffffff821115610ab757610ab6610a21565b5b610ac082610a10565b9050602081019050919050565b82818337600083830152505050565b6000610aef610aea84610a9c565b610a81565b905082815260208101848484011115610b0b57610b0a610a0b565b5b610b16848285610acd565b509392505050565b600082601f830112610b3357610b32610a06565b5b8135610b43848260208601610adc565b91505092915050565b60008060408385031215610b6357610b6261090b565b5b6000610b71858286016109f1565b925050602083013567ffffffffffffffff811115610b9257610b91610910565b5b610b9e85828601610b1e565b9150509250929050565b610bb181610915565b82525050565b6000602082019050610bcc6000830184610ba8565b92915050565b600073ffffffffffffffffffffffffffffffffffffffff82169050919050565b6000610bfd82610bd2565b9050919050565b610c0d81610bf2565b82525050565b6000602082019050610c286000830184610c04565b92915050565b610c3781610bf2565b8114610c4257600080fd5b50565b600081359050610c5481610c2e565b92915050565b6000819050919050565b610c6d81610c5a565b8114610c7857600080fd5b50565b600081359050610c8a81610c64565b92915050565b600080fd5b600080fd5b60008083601f840112610cb057610caf610a06565b5b8235905067ffffffffffffffff811115610ccd57610ccc610c90565b5b602083019150836001820283011115610ce957610ce8610c95565b5b9250929050565b60008060008060608587031215610d0a57610d0961090b565b5b6000610d1887828801610c45565b9450506020610d2987828801610c7b565b935050604085013567ffffffffffffffff811115610d4a57610d49610910565b5b610d5687828801610c9a565b925092505092959194509250565b600081519050919050565b600082825260208201905092915050565b60005b83811015610d9e578082015181840152602081019050610d83565b60008484015250505050565b6000610db582610d64565b610dbf8185610d6f565b9350610dcf818560208601610d80565b610dd881610a10565b840191505092915050565b60006020820190508181036000830152610dfd8184610daa565b905092915050565b610e0e81610c5a565b82525050565b6000602082019050610e296000830184610e05565b92915050565b6000606082019050610e446000830186610e05565b610e516020830185610c04565b610e5e6040830184610e05565b949350505050565b600081519050610e7581610c64565b92915050565b600081519050610e8a81610c2e565b92915050565b600080600060608486031215610ea957610ea861090b565b5b6000610eb786828701610e66565b9350506020610ec886828701610e7b565b9250506040610ed986828701610e66565b9150509250925092565b600060208284031215610ef957610ef861090b565b5b6000610f0784828501610e7b565b91505092915050565b600082825260208201905092915050565b7f4e6f7420746f6b656e206f776e65720000000000000000000000000000000000600082015250565b6000610f57600f83610f10565b9150610f6282610f21565b602082019050919050565b60006020820190508181036000830152610f8681610f4a565b9050919050565b600081905092915050565b6000610fa48385610f8d565b9350610fb1838584610acd565b82840190509392505050565b6000610fca828486610f98565b91508190509392505050565b7f4e487b7100000000000000000000000000000000000000000000000000000000600052601160045260246000fd5b600061101082610c5a565b915061101b83610c5a565b925082820390508181111561103357611032610fd6565b5b92915050565b600061104482610bd2565b9050919050565b61105481611039565b811461105f57600080fd5b50565b6000815190506110718161104b565b92915050565b6000806000606084860312156110905761108f61090b565b5b600061109e86828701610e66565b93505060206110af86828701611062565b92505060406110c086828701610e66565b9150509250925092565b7f4e487b7100000000000000000000000000000000000000000000000000000000600052602160045260246000fd5b600060608201905061110e6000830186610e05565b61111b6020830185610e05565b6111286040830184610e05565b949350505050565b611139816109d0565b82525050565b60006040820190506111546000830185611130565b81810360208301526111668184610daa565b90509392505050565b600061117a82610d64565b6111848185610f8d565b9350611194818560208601610d80565b80840191505092915050565b60006111ac828461116f565b915081905092915050565b6000815190506111c6816109da565b92915050565b6000602082840312156111e2576111e161090b565b5b60006111f0848285016111b7565b91505092915050565b600060ff82169050919050565b61120f816111f9565b82525050565b600060808201905061122a6000830187611130565b6112376020830186611206565b6112446040830185611130565b6112516060830184611130565b9594505050505056fea2646970667358221220a27135e15dbbb0dcc20f6e3c378e951d2655d4ae5baebbc667a8d1011395162e64736f6c63430008120033",
  "linkReferences": {},
  "deployedLinkReferences": {}
}