{
  "_format": "hh-sol-artifact-1",
  "contractName": "SimpleNFT",
  "sourceName": "contracts/SimpleNFT.sol",
  "abi": [
    {
      "inputs": [],
      "stateMutability": "nonpayable",
      "type": "constructor"
    },
    {
      "anonymous": false,
      "inputs": [
        {
          "indexed": true,
          "internalType": "address",
          "name": "owner",
          "type": "address"
        },
        {
          "indexed": true,
          "internalType": "address",
          "name": "approved",
          "type": "address"
        },
        {
          "indexed": true,
          "internalType": "uint256",
          "name": "tokenId",
          "type": "uint256"
        }
      ],
      "name": "Approval",
      "type": "event"
    },
    {
      "anonymous": false,
      "inputs": [
        {
          "indexed": true,
          "internalType": "address",
          "name": "owner",
          "type": "address"
        },
        {
          "indexed": true,
          "internalType": "address",
          "name": "operator",
          "type": "address"
        },
        {
          "indexed": false,
          "internalType": "bool",
          "name": "approved",
          "type": "bool"
        }
      ],
      "name": "ApprovalForAll",
      "type": "event"
    },
    {
      "anonymous": false,
      "inputs": [
        {
          "indexed": true,
          "internalType": "address",
          "name": "from",
          "type": "address"
        },
        {
          "indexed": true,
          "internalType": "address",
          "name": "to",
          "type": "address"
        },
        {
          "indexed": true,
          "internalType": "uint256",
          "name": "tokenId",
          "type": "uint256"
        }
      ],
      "name": "Transfer",
      "type": "event"
    },
    {
      "inputs": [
        {
          "internalType": "address",
          "name": "to",
          "type": "address"
        },
        {
          "internalType": "uint256",
          "name": "tokenId",
          "type": "uint256"
        }
      ],
      "name": "approve",
      "outputs": [],
      "stateMutability": "nonpayable",
      "type": "function"
    },
    {
      "inputs": [
        {
          "internalType": "address",
          "name": "owner",
          "type": "address"
        }
      ],
      "name": "balanceOf",
      "outputs": [
        {
          "internalType": "uint256",
          "name": "",
          "type": "uint256"
        }
      ],
      "stateMutability": "view",
      "type": "function"
    },
    {
      "inputs": [
        {
          "internalType": "uint256",
          "name": "tokenId",
          "type": "uint256"
        }
      ],
      "name": "getApproved",
      "outputs": [
        {
          "internalType": "address",
          "name": "",
          "type": "address"
        }
      ],
      "stateMutability": "view",
      "type": "function"
    },
    {
      "inputs": [
        {
          "internalType": "address",
          "name": "owner",
          "type": "address"
        },
        {
          "internalType": "address",
          "name": "operator",
          "type": "address"
        }
      ],
      "name": "isApprovedForAll",
      "outputs": [
        {
          "internalType": "bool",
          "name": "",
          "type": "bool"
        }
      ],
      "stateMutability": "view",
      "type": "function"
    },
    {
      "inputs": [
        {
          "internalType": "address",
          "name": "to",
          "type": "address"
        }
      ],
      "name": "mintNFT",
      "outputs": [],
      "stateMutability": "nonpayable",
      "type": "function"
    },
    {
      "inputs": [],
      "name": "name",
      "outputs": [
        {
          "internalType": "string",
          "name": "",
          "type": "string"
        }
      ],
      "stateMutability": "view",
      "type": "function"
    },
    {
      "inputs": [
        {
          "internalType": "uint256",
          "name": "tokenId",
          "type": "uint256"
        }
      ],
      "name": "ownerOf",
      "outputs": [
        {
          "internalType": "address",
          "name": "",
          "type": "address"
        }
      ],
      "stateMutability": "view",
      "type": "function"
    },
    {
      "inputs": [
        {
          "internalType": "address",
          "name": "from",
          "type": "address"
        },
        {
          "internalType": "address",
          "name": "to",
          "type": "address"
        },
        {
          "internalType": "uint256",
          "name": "tokenId",
          "type": "uint256"
        }
      ],
      "name": "safeTransferFrom",
      "outputs": [],
      "stateMutability": "nonpayable",
      "type": "function"
    },
    {
      "inputs": [
        {
          "internalType": "address",
          "name": "from",
          "type": "address"
        },
        {
          "internalType": "address",
          "name": "to",
          "type": "address"
        },
        {
          "internalType": "uint256",
          "name": "tokenId",
          "type": "uint256"
        },
        {
          "internalType": "bytes",
          "name": "data",
          "type": "bytes"
        }
      ],
      "name": "safeTransferFrom",
      "outputs": [],
      "stateMutability": "nonpayable",
      "type": "function"
    },
    {
      "inputs": [
        {
          "internalType": "address",
          "name": "operator",
          "type": "address"
        },
        {
          "internalType": "bool",
          "name": "approved",
          "type": "bool"
        }
      ],
      "name": "setApprovalForAll",
      "outputs": [],
      "stateMutability": "nonpayable",
      "type": "function"
    },
    {
      "inputs": [
        {
          "internalType": "bytes4",
          "name": "interfaceId",
          "type": "bytes4"
        }
      ],
      "name": "supportsInterface",
      "outputs": [
        {
          "internalType": "bool",
          "name": "",
          "type": "bool"
        }
      ],
      "stateMutability": "view",
      "type": "function"
    },
    {
      "inputs": [],
      "name": "symbol",
      "outputs": [
        {
          "internalType": "string",
          "name": "",
          "type": "string"
        }
      ],
      "stateMutability": "view",
      "type": "function"
    },
    {
      "inputs": [
        {
          "internalType": "uint256",
          "name": "tokenId",
          "type": "uint256"
        }
      ],
      "name": "tokenURI",
      "outputs": [
        {
          "internalType": "string",
          "name": "",
          "type": "string"
        }
      ],
      "stateMutability": "view",
      "type": "function"
    },
    {
      "inputs": [
        {
          "internalType": "address",
          "name": "from",
          "type": "address"
        },
        {
          "internalType": "address",
          "name": "to",
          "type": "address"
        },
        {
          "internalType": "uint256",
          "name": "tokenId",
          "type": "uint256"
        }
      ],
      "name": "transferFrom",
      "outputs": [],
      "stateMutability": "nonpayable",
      "type": "function"
    }
  ],
  "bytecode": "0x60806040523480156200001157600080fd5b506040518060400160405280600981526020017f53696d706c654e465400000000000000000000000000000000000000000000008152506040518060400160405280600481526020017f534e46540000000000000000000000000000000000000000000000000000000081525081600090816200008f919062000324565b508060019081620000a1919062000324565b5050506200040b565b600081519050919050565b7f4e487b7100000000000000000000000000000000000000000000000000000000600052604160045260246000fd5b7f4e487b7100000000000000000000000000000000000000000000000000000000600052602260045260246000fd5b600060028204905060018216806200012c57607f821691505b602082108103620001425762000141620000e4565b5b50919050565b60008190508160005260206000209050919050565b60006020601f8301049050919050565b600082821b905092915050565b600060088302620001ac7fffffffffffffffffffffffffffffffffffffffffffffffffffffffffffffffff826200016d565b620001b886836200016d565b95508019841693508086168417925050509392505050565b6000819050919050565b6000819050919050565b600062000205620001ff620001f984620001d0565b620001da565b620001d0565b9050919050565b6000819050919050565b6200022183620001e4565b6200023962000230826200020c565b8484546200017a565b825550505050565b600090565b6200025062000241565b6200025d81848462000216565b505050565b5b8181101562000285576200027960008262000246565b60018101905062000263565b5050565b601f821115620002d4576200029e8162000148565b620002a9846200015d565b81016020851015620002b9578190505b620002d1620002c8856200015d565b83018262000262565b50505b505050565b600082821c905092915050565b6000620002f960001984600802620002d9565b1980831691505092915050565b6000620003148383620002e6565b9150826002028217905092915050565b6200032f82620000aa565b67ffffffffffffffff8111156200034b576200034a620000b5565b5b62000357825462000113565b6200036482828562000289565b600060209050601f8311600181146200039c576000841562000387578287015190505b62000393858262000306565b86555062000403565b601f198416620003ac8662000148565b60005b82811015620003d657848901518255600182019150602085019450602081019050620003af565b86831015620003f65784890151620003f2601f891682620002e6565b8355505b6001600288020188555050505b505050505050565b6124ea806200041b6000396000f3fe608060405234801561001057600080fd5b50600436106100ea5760003560e01c80636352211e1161008c578063a22cb46511610066578063a22cb4651461025b578063b88d4fde14610277578063c87b56dd14610293578063e985e9c5146102c3576100ea565b80636352211e146101dd57806370a082311461020d57806395d89b411461023d576100ea565b8063095ea7b3116100c8578063095ea7b31461016d57806323b872dd1461018957806342842e0e146101a557806354ba0f27146101c1576100ea565b806301ffc9a7146100ef57806306fdde031461011f578063081812fc1461013d575b600080fd5b6101096004803603810190610104919061176f565b6102f3565b60405161011691906117b7565b60405180910390f35b6101276103d5565b6040516101349190611862565b60405180910390f35b610157600480360381019061015291906118ba565b610467565b6040516101649190611928565b60405180910390f35b6101876004803603810190610182919061196f565b6104ad565b005b6101a3600480360381019061019e91906119af565b6105c4565b005b6101bf60048036038101906101ba91906119af565b610624565b005b6101db60048036038101906101d69190611a02565b610644565b005b6101f760048036038101906101f291906118ba565b61066b565b6040516102049190611928565b60405180910390f35b61022760048036038101906102229190611a02565b6106f1565b6040516102349190611a3e565b60405180910390f35b6102456107a8565b6040516102529190611862565b60405180910390f35b61027560048036038101906102709190611a85565b61083a565b005b610291600480360381019061028c9190611bfa565b610850565b005b6102ad60048036038101906102a891906118ba565b6108b2565b6040516102ba9190611862565b60405180910390f35b6102dd60048036038101906102d89190611c7d565b61091a565b6040516102ea91906117b7565b60405180910390f35b60007f80ac58cd000000000000000000000000000000000000000000000000000000007bffffffffffffffffffffffffffffffffffffffffffffffffffffffff1916827bffffffffffffffffffffffffffffffffffffffffffffffffffffffff191614806103be57507f5b5e139f000000000000000000000000000000000000000000000000000000007bffffffffffffffffffffffffffffffffffffffffffffffffffffffff1916827bffffffffffffffffffffffffffffffffffffffffffffffffffffffff1916145b806103ce57506103cd826109ae565b5b9050919050565b6060600080546103e490611cec565b80601f016020809104026020016040519081016040528092919081815260200182805461041090611cec565b801561045d5780601f106104325761010080835404028352916020019161045d565b820191906000526020600020905b81548152906001019060200180831161044057829003601f168201915b5050505050905090565b600061047282610a18565b6004600083815260200190815260200160002060009054906101000a900473ffffffffffffffffffffffffffffffffffffffff169050919050565b60006104b88261066b565b90508073ffffffffffffffffffffffffffffffffffffffff168373ffffffffffffffffffffffffffffffffffffffff1603610528576040517f08c379a000000000000000000000000000000000000000000000000000000000815260040161051f90611d8f565b60405180910390fd5b8073ffffffffffffffffffffffffffffffffffffffff16610547610a63565b73ffffffffffffffffffffffffffffffffffffffff161480610576575061057581610570610a63565b61091a565b5b6105b5576040517f08c379a00000000000000000000000000000000000000000000000000000000081526004016105ac90611e21565b60405180910390fd5b6105bf8383610a6b565b505050565b6105d56105cf610a63565b82610b24565b610614576040517f08c379a000000000000000000000000000000000000000000000000000000000815260040161060b90611eb3565b60405180910390fd5b61061f838383610bb9565b505050565b61063f83838360405180602001604052806000815250610850565b505050565b61065081600654610eb2565b6006600081548092919061066390611f02565b919050555050565b600080610677836110cf565b9050600073ffffffffffffffffffffffffffffffffffffffff168173ffffffffffffffffffffffffffffffffffffffff16036106e8576040517f08c379a00000000000000000000000000000000000000000000000000000000081526004016106df90611f96565b60405180910390fd5b80915050919050565b60008073ffffffffffffffffffffffffffffffffffffffff168273ffffffffffffffffffffffffffffffffffffffff1603610761576040517f08c379a000000000000000000000000000000000000000000000000000000000815260040161075890612028565b60405180910390fd5b600360008373ffffffffffffffffffffffffffffffffffffffff1673ffffffffffffffffffffffffffffffffffffffff168152602001908152602001600020549050919050565b6060600180546107b790611cec565b80601f01602080910402602001604051908101604052809291908181526020018280546107e390611cec565b80156108305780601f1061080557610100808354040283529160200191610830565b820191906000526020600020905b81548152906001019060200180831161081357829003601f168201915b5050505050905090565b61084c610845610a63565b838361110c565b5050565b61086161085b610a63565b83610b24565b6108a0576040517f08c379a000000000000000000000000000000000000000000000000000000000815260040161089790611eb3565b60405180910390fd5b6108ac84848484611278565b50505050565b60606108bd82610a18565b60006108c76112d4565b905060008151116108e75760405180602001604052806000815250610912565b806108f1846112eb565b604051602001610902929190612084565b6040516020818303038152906040525b915050919050565b6000600560008473ffffffffffffffffffffffffffffffffffffffff1673ffffffffffffffffffffffffffffffffffffffff16815260200190815260200160002060008373ffffffffffffffffffffffffffffffffffffffff1673ffffffffffffffffffffffffffffffffffffffff16815260200190815260200160002060009054906101000a900460ff16905092915050565b60007f01ffc9a7000000000000000000000000000000000000000000000000000000007bffffffffffffffffffffffffffffffffffffffffffffffffffffffff1916827bffffffffffffffffffffffffffffffffffffffffffffffffffffffff1916149050919050565b610a21816113b9565b610a60576040517f08c379a0000000000000000000000000000000000000000000000000000000008152600401610a5790611f96565b60405180910390fd5b50565b600033905090565b816004600083815260200190815260200160002060006101000a81548173ffffffffffffffffffffffffffffffffffffffff021916908373ffffffffffffffffffffffffffffffffffffffff160217905550808273ffffffffffffffffffffffffffffffffffffffff16610ade8361066b565b73ffffffffffffffffffffffffffffffffffffffff167f8c5be1e5ebec7d5bd14f71427d1e84f3dd0314c0f7b2291e5b200ac8c7c3b92560405160405180910390a45050565b600080610b308361066b565b90508073ffffffffffffffffffffffffffffffffffffffff168473ffffffffffffffffffffffffffffffffffffffff161480610b725750610b71818561091a565b5b80610bb057508373ffffffffffffffffffffffffffffffffffffffff16610b9884610467565b73ffffffffffffffffffffffffffffffffffffffff16145b91505092915050565b8273ffffffffffffffffffffffffffffffffffffffff16610bd98261066b565b73ffffffffffffffffffffffffffffffffffffffff1614610c2f576040517f08c379a0000000000000000000000000000000000000000000000000000000008152600401610c269061211a565b60405180910390fd5b600073ffffffffffffffffffffffffffffffffffffffff168273ffffffffffffffffffffffffffffffffffffffff1603610c9e576040517f08c379a0000000000000000000000000000000000000000000000000000000008152600401610c95906121ac565b60405180910390fd5b610cab83838360016113fa565b8273ffffffffffffffffffffffffffffffffffffffff16610ccb8261066b565b73ffffffffffffffffffffffffffffffffffffffff1614610d21576040517f08c379a0000000000000000000000000000000000000000000000000000000008152600401610d189061211a565b60405180910390fd5b6004600082815260200190815260200160002060006101000a81549073ffffffffffffffffffffffffffffffffffffffff02191690556001600360008573ffffffffffffffffffffffffffffffffffffffff1673ffffffffffffffffffffffffffffffffffffffff168152602001908152602001600020600082825403925050819055506001600360008473ffffffffffffffffffffffffffffffffffffffff1673ffffffffffffffffffffffffffffffffffffffff16815260200190815260200160002060008282540192505081905550816002600083815260200190815260200160002060006101000a81548173ffffffffffffffffffffffffffffffffffffffff021916908373ffffffffffffffffffffffffffffffffffffffff160217905550808273ffffffffffffffffffffffffffffffffffffffff168473ffffffffffffffffffffffffffffffffffffffff167fddf252ad1be2c89b69c2b068fc378daa952ba7f163c4a11628f55a4df523b3ef60405160405180910390a4610ead8383836001611400565b505050565b600073ffffffffffffffffffffffffffffffffffffffff168273ffffffffffffffffffffffffffffffffffffffff1603610f21576040517f08c379a0000000000000000000000000000000000000000000000000000000008152600401610f1890612218565b60405180910390fd5b610f2a816113b9565b15610f6a576040517f08c379a0000000000000000000000000000000000000000000000000000000008152600401610f6190612284565b60405180910390fd5b610f786000838360016113fa565b610f81816113b9565b15610fc1576040517f08c379a0000000000000000000000000000000000000000000000000000000008152600401610fb890612284565b60405180910390fd5b6001600360008473ffffffffffffffffffffffffffffffffffffffff1673ffffffffffffffffffffffffffffffffffffffff16815260200190815260200160002060008282540192505081905550816002600083815260200190815260200160002060006101000a81548173ffffffffffffffffffffffffffffffffffffffff021916908373ffffffffffffffffffffffffffffffffffffffff160217905550808273ffffffffffffffffffffffffffffffffffffffff16600073ffffffffffffffffffffffffffffffffffffffff167fddf252ad1be2c89b69c2b068fc378daa952ba7f163c4a11628f55a4df523b3ef60405160405180910390a46110cb600083836001611400565b5050565b60006002600083815260200190815260200160002060009054906101000a900473ffffffffffffffffffffffffffffffffffffffff169050919050565b8173ffffffffffffffffffffffffffffffffffffffff168373ffffffffffffffffffffffffffffffffffffffff160361117a576040517f08c379a0000000000000000000000000000000000000000000000000000000008152600401611171906122f0565b60405180910390fd5b80600560008573ffffffffffffffffffffffffffffffffffffffff1673ffffffffffffffffffffffffffffffffffffffff16815260200190815260200160002060008473ffffffffffffffffffffffffffffffffffffffff1673ffffffffffffffffffffffffffffffffffffffff16815260200190815260200160002060006101000a81548160ff0219169083151502179055508173ffffffffffffffffffffffffffffffffffffffff168373ffffffffffffffffffffffffffffffffffffffff167f17307eab39ab6107e8899845ad3d59bd9653f200f220920489ca2b5937696c318360405161126b91906117b7565b60405180910390a3505050565b611283848484610bb9565b61128f84848484611406565b6112ce576040517f08c379a00000000000000000000000000000000000000000000000000000000081526004016112c590612382565b60405180910390fd5b50505050565b606060405180602001604052806000815250905090565b6060600060016112fa8461158d565b01905060008167ffffffffffffffff81111561131957611318611acf565b5b6040519080825280601f01601f19166020018201604052801561134b5781602001600182028036833780820191505090505b509050600082602001820190505b6001156113ae578080600190039150507f3031323334353637383961626364656600000000000000000000000000000000600a86061a8153600a85816113a2576113a16123a2565b5b04945060008503611359575b819350505050919050565b60008073ffffffffffffffffffffffffffffffffffffffff166113db836110cf565b73ffffffffffffffffffffffffffffffffffffffff1614159050919050565b50505050565b50505050565b60006114278473ffffffffffffffffffffffffffffffffffffffff166116e0565b15611580578373ffffffffffffffffffffffffffffffffffffffff1663150b7a02611450610a63565b8786866040518563ffffffff1660e01b81526004016114729493929190612426565b6020604051808303816000875af19250505080156114ae57506040513d601f19601f820116820180604052508101906114ab9190612487565b60015b611530573d80600081146114de576040519150601f19603f3d011682016040523d82523d6000602084013e6114e3565b606091505b506000815103611528576040517f08c379a000000000000000000000000000000000000000000000000000000000815260040161151f90612382565b60405180910390fd5b805181602001fd5b63150b7a0260e01b7bffffffffffffffffffffffffffffffffffffffffffffffffffffffff1916817bffffffffffffffffffffffffffffffffffffffffffffffffffffffff191614915050611585565b600190505b949350505050565b600080600090507a184f03e93ff9f4daa797ed6e38ed64bf6a1f01000000000000000083106115eb577a184f03e93ff9f4daa797ed6e38ed64bf6a1f01000000000000000083816115e1576115e06123a2565b5b0492506040810190505b6d04ee2d6d415b85acef81000000008310611628576d04ee2d6d415b85acef8100000000838161161e5761161d6123a2565b5b0492506020810190505b662386f26fc10000831061165757662386f26fc10000838161164d5761164c6123a2565b5b0492506010810190505b6305f5e1008310611680576305f5e1008381611676576116756123a2565b5b0492506008810190505b61271083106116a557612710838161169b5761169a6123a2565b5b0492506004810190505b606483106116c857606483816116be576116bd6123a2565b5b0492506002810190505b600a83106116d7576001810190505b80915050919050565b6000808273ffffffffffffffffffffffffffffffffffffffff163b119050919050565b6000604051905090565b600080fd5b600080fd5b60007fffffffff0000000000000000000000000000000000000000000000000000000082169050919050565b61174c81611717565b811461175757600080fd5b50565b60008135905061176981611743565b92915050565b6000602082840312156117855761178461170d565b5b60006117938482850161175a565b91505092915050565b60008115159050919050565b6117b18161179c565b82525050565b60006020820190506117cc60008301846117a8565b92915050565b600081519050919050565b600082825260208201905092915050565b60005b8381101561180c5780820151818401526020810190506117f1565b60008484015250505050565b6000601f19601f8301169050919050565b6000611834826117d2565b61183e81856117dd565b935061184e8185602086016117ee565b61185781611818565b840191505092915050565b6000602082019050818103600083015261187c8184611829565b905092915050565b6000819050919050565b61189781611884565b81146118a257600080fd5b50565b6000813590506118b48161188e565b92915050565b6000602082840312156118d0576118cf61170d565b5b60006118de848285016118a5565b91505092915050565b600073ffffffffffffffffffffffffffffffffffffffff82169050919050565b6000611912826118e7565b9050919050565b61192281611907565b82525050565b600060208201905061193d6000830184611919565b92915050565b61194c81611907565b811461195757600080fd5b50565b60008135905061196981611943565b92915050565b600080604083850312156119865761198561170d565b5b60006119948582860161195a565b92505060206119a5858286016118a5565b9150509250929050565b6000806000606084860312156119c8576119c761170d565b5b60006119d68682870161195a565b93505060206119e78682870161195a565b92505060406119f8868287016118a5565b9150509250925092565b600060208284031215611a1857611a1761170d565b5b6000611a268482850161195a565b91505092915050565b611a3881611884565b82525050565b6000602082019050611a536000830184611a2f565b92915050565b611a628161179c565b8114611a6d57600080fd5b50565b600081359050611a7f81611a59565b92915050565b60008060408385031215611a9c57611a9b61170d565b5b6000611aaa8582860161195a565b9250506020611abb85828601611a70565b9150509250929050565b600080fd5b600080fd5b7f4e487b7100000000000000000000000000000000000000000000000000000000600052604160045260246000fd5b611b0782611818565b810181811067ffffffffffffffff82111715611b2657611b25611acf565b5b80604052505050565b6000611b39611703565b9050611b458282611afe565b919050565b600067ffffffffffffffff821115611b6557611b64611acf565b5b611b6e82611818565b9050602081019050919050565b82818337600083830152505050565b6000611b9d611b9884611b4a565b611b2f565b905082815260208101848484011115611bb957611bb8611aca565b5b611bc4848285611b7b565b509392505050565b600082601f830112611be157611be0611ac5565b5b8135611bf1848260208601611b8a565b91505092915050565b60008060008060808587031215611c1457611c1361170d565b5b6000611c228782880161195a565b9450506020611c338782880161195a565b9350506040611c44878288016118a5565b925050606085013567ffffffffffffffff811115611c6557611c64611712565b5b611c7187828801611bcc565b91505092959194509250565b60008060408385031215611c9457611c9361170d565b5b6000611ca28582860161195a565b9250506020611cb38582860161195a565b9150509250929050565b7f4e487b7100000000000000000000000000000000000000000000000000000000600052602260045260246000fd5b60006002820490506001821680611d0457607f821691505b602082108103611d1757611d16611cbd565b5b50919050565b7f4552433732313a20617070726f76616c20746f2063757272656e74206f776e6560008201527f7200000000000000000000000000000000000000000000000000000000000000602082015250565b6000611d796021836117dd565b9150611d8482611d1d565b604082019050919050565b60006020820190508181036000830152611da881611d6c565b9050919050565b7f4552433732313a20617070726f76652063616c6c6572206973206e6f7420746f60008201527f6b656e206f776e6572206f7220617070726f76656420666f7220616c6c000000602082015250565b6000611e0b603d836117dd565b9150611e1682611daf565b604082019050919050565b60006020820190508181036000830152611e3a81611dfe565b9050919050565b7f4552433732313a2063616c6c6572206973206e6f7420746f6b656e206f776e6560008201527f72206f7220617070726f76656400000000000000000000000000000000000000602082015250565b6000611e9d602d836117dd565b9150611ea882611e41565b604082019050919050565b60006020820190508181036000830152611ecc81611e90565b9050919050565b7f4e487b7100000000000000000000000000000000000000000000000000000000600052601160045260246000fd5b6000611f0d82611884565b91507fffffffffffffffffffffffffffffffffffffffffffffffffffffffffffffffff8203611f3f57611f3e611ed3565b5b600182019050919050565b7f4552433732313a20696e76616c696420746f6b656e2049440000000000000000600082015250565b6000611f806018836117dd565b9150611f8b82611f4a565b602082019050919050565b60006020820190508181036000830152611faf81611f73565b9050919050565b7f4552433732313a2061646472657373207a65726f206973206e6f74206120766160008201527f6c6964206f776e65720000000000000000000000000000000000000000000000602082015250565b60006120126029836117dd565b915061201d82611fb6565b604082019050919050565b6000602082019050818103600083015261204181612005565b9050919050565b600081905092915050565b600061205e826117d2565b6120688185612048565b93506120788185602086016117ee565b80840191505092915050565b60006120908285612053565b915061209c8284612053565b91508190509392505050565b7f4552433732313a207472616e736665722066726f6d20696e636f72726563742060008201527f6f776e6572000000000000000000000000000000000000000000000000000000602082015250565b60006121046025836117dd565b915061210f826120a8565b604082019050919050565b60006020820190508181036000830152612133816120f7565b9050919050565b7f4552433732313a207472616e7366657220746f20746865207a65726f2061646460008201527f7265737300000000000000000000000000000000000000000000000000000000602082015250565b60006121966024836117dd565b91506121a18261213a565b604082019050919050565b600060208201905081810360008301526121c581612189565b9050919050565b7f4552433732313a206d696e7420746f20746865207a65726f2061646472657373600082015250565b60006122026020836117dd565b915061220d826121cc565b602082019050919050565b60006020820190508181036000830152612231816121f5565b9050919050565b7f4552433732313a20746f6b656e20616c7265616479206d696e74656400000000600082015250565b600061226e601c836117dd565b915061227982612238565b602082019050919050565b6000602082019050818103600083015261229d81612261565b9050919050565b7f4552433732313a20617070726f766520746f2063616c6c657200000000000000600082015250565b60006122da6019836117dd565b91506122e5826122a4565b602082019050919050565b60006020820190508181036000830152612309816122cd565b9050919050565b7f4552433732313a207472616e7366657220746f206e6f6e20455243373231526560008201527f63656976657220696d706c656d656e7465720000000000000000000000000000602082015250565b600061236c6032836117dd565b915061237782612310565b604082019050919050565b6000602082019050818103600083015261239b8161235f565b9050919050565b7f4e487b7100000000000000000000000000000000000000000000000000000000600052601260045260246000fd5b600081519050919050565b600082825260208201905092915050565b60006123f8826123d1565b61240281856123dc565b93506124128185602086016117ee565b61241b81611818565b840191505092915050565b600060808201905061243b6000830187611919565b6124486020830186611919565b6124556040830185611a2f565b818103606083015261246781846123ed565b905095945050505050565b60008151905061248181611743565b92915050565b60006020828403121561249d5761249c61170d565b5b60006124ab84828501612472565b9150509291505056fea264697066735822122091e3316c06e1e67dfc5dd978f0ca2aadbe87710e4e28b0d4403057c05c57f37564736f6c63430008120033",
  "linkReferences": {},
  "deployedLinkReferences": {}
}